{
  "contractName": "Voting",
  "abi": [
    {
      "inputs": [
        {
          "internalType": "string",
          "name": "_ballotOfficialName",
          "type": "string"
        },
        {
          "internalType": "string",
          "name": "_proposal",
          "type": "string"
        }
      ],
      "stateMutability": "nonpayable",
      "type": "constructor"
    },
    {
      "anonymous": false,
      "inputs": [
        {
          "indexed": false,
          "internalType": "string",
          "name": "choice",
          "type": "string"
        }
      ],
      "name": "choiceAdded",
      "type": "event"
    },
    {
      "anonymous": false,
      "inputs": [
        {
          "indexed": false,
          "internalType": "address",
          "name": "voter",
          "type": "address"
        }
      ],
      "name": "voteDone",
      "type": "event"
    },
    {
      "anonymous": false,
      "inputs": [],
      "name": "voteEnded",
      "type": "event"
    },
    {
      "anonymous": false,
      "inputs": [],
      "name": "voteStarted",
      "type": "event"
    },
    {
      "anonymous": false,
      "inputs": [
        {
          "indexed": false,
          "internalType": "address",
          "name": "voter",
          "type": "address"
        }
      ],
      "name": "voterAdded",
      "type": "event"
    },
    {
      "inputs": [],
      "name": "ballotOfficialAddress",
      "outputs": [
        {
          "internalType": "address",
          "name": "",
          "type": "address"
        }
      ],
      "stateMutability": "view",
      "type": "function"
    },
    {
      "inputs": [],
      "name": "ballotOfficialName",
      "outputs": [
        {
          "internalType": "string",
          "name": "",
          "type": "string"
        }
      ],
      "stateMutability": "view",
      "type": "function"
    },
    {
      "inputs": [],
      "name": "choiceCount",
      "outputs": [
        {
          "internalType": "uint256",
          "name": "",
          "type": "uint256"
        }
      ],
      "stateMutability": "view",
      "type": "function"
    },
    {
      "inputs": [
        {
          "internalType": "uint256",
          "name": "",
          "type": "uint256"
        }
      ],
      "name": "choices",
      "outputs": [
        {
          "internalType": "string",
          "name": "",
          "type": "string"
        }
      ],
      "stateMutability": "view",
      "type": "function"
    },
    {
      "inputs": [],
      "name": "proposal",
      "outputs": [
        {
          "internalType": "string",
          "name": "",
          "type": "string"
        }
      ],
      "stateMutability": "view",
      "type": "function"
    },
    {
      "inputs": [
        {
          "internalType": "uint256",
          "name": "",
          "type": "uint256"
        }
      ],
      "name": "result",
      "outputs": [
        {
          "internalType": "string",
          "name": "",
          "type": "string"
        }
      ],
      "stateMutability": "view",
      "type": "function"
    },
    {
      "inputs": [],
      "name": "state",
      "outputs": [
        {
          "internalType": "enum Voting.State",
          "name": "",
          "type": "uint8"
        }
      ],
      "stateMutability": "view",
      "type": "function"
    },
    {
      "inputs": [],
      "name": "totalVote",
      "outputs": [
        {
          "internalType": "uint256",
          "name": "",
          "type": "uint256"
        }
      ],
      "stateMutability": "view",
      "type": "function"
    },
    {
      "inputs": [],
      "name": "totalVoter",
      "outputs": [
        {
          "internalType": "uint256",
          "name": "",
          "type": "uint256"
        }
      ],
      "stateMutability": "view",
      "type": "function"
    },
    {
      "inputs": [
        {
          "internalType": "address",
          "name": "",
          "type": "address"
        }
      ],
      "name": "voterRegister",
      "outputs": [
        {
          "internalType": "string",
          "name": "voterName",
          "type": "string"
        },
        {
          "internalType": "bool",
          "name": "voted",
          "type": "bool"
        }
      ],
      "stateMutability": "view",
      "type": "function"
    },
    {
      "inputs": [
        {
          "internalType": "string",
          "name": "_choice",
          "type": "string"
        }
      ],
      "name": "addChoice",
      "outputs": [],
      "stateMutability": "nonpayable",
      "type": "function"
    },
    {
      "inputs": [
        {
          "internalType": "address",
          "name": "_voterAddress",
          "type": "address"
        },
        {
          "internalType": "string",
          "name": "_voterName",
          "type": "string"
        }
      ],
      "name": "addVoter",
      "outputs": [],
      "stateMutability": "nonpayable",
      "type": "function"
    },
    {
      "inputs": [],
      "name": "startVote",
      "outputs": [],
      "stateMutability": "nonpayable",
      "type": "function"
    },
    {
      "inputs": [
        {
          "internalType": "string",
          "name": "_choice",
          "type": "string"
        }
      ],
      "name": "doVote",
      "outputs": [
        {
          "internalType": "bool",
          "name": "voted",
          "type": "bool"
        }
      ],
      "stateMutability": "nonpayable",
      "type": "function"
    },
    {
      "inputs": [],
      "name": "endVote",
      "outputs": [],
      "stateMutability": "nonpayable",
      "type": "function"
    },
    {
      "inputs": [
        {
          "internalType": "string",
          "name": "_choice",
          "type": "string"
        }
      ],
      "name": "getVote",
      "outputs": [
        {
          "internalType": "uint256",
          "name": "voteCount",
          "type": "uint256"
        }
      ],
      "stateMutability": "view",
      "type": "function"
    }
  ],
  "bytecode": "0x60806040525f5f555f6001555f60025534801561001a575f5ffd5b50604051611dce380380611dce833981810160405281019061003c9190610219565b3360035f6101000a81548173ffffffffffffffffffffffffffffffffffffffff021916908373ffffffffffffffffffffffffffffffffffffffff160217905550816004908161008b919061049f565b50806005908161009b919061049f565b505f600a5f6101000a81548160ff021916908360028111156100c0576100bf61056e565b5b0217905550505061059b565b5f604051905090565b5f5ffd5b5f5ffd5b5f5ffd5b5f5ffd5b5f601f19601f8301169050919050565b7f4e487b71000000000000000000000000000000000000000000000000000000005f52604160045260245ffd5b61012b826100e5565b810181811067ffffffffffffffff8211171561014a576101496100f5565b5b80604052505050565b5f61015c6100cc565b90506101688282610122565b919050565b5f67ffffffffffffffff821115610187576101866100f5565b5b610190826100e5565b9050602081019050919050565b8281835e5f83830152505050565b5f6101bd6101b88461016d565b610153565b9050828152602081018484840111156101d9576101d86100e1565b5b6101e484828561019d565b509392505050565b5f82601f830112610200576101ff6100dd565b5b81516102108482602086016101ab565b91505092915050565b5f5f6040838503121561022f5761022e6100d5565b5b5f83015167ffffffffffffffff81111561024c5761024b6100d9565b5b610258858286016101ec565b925050602083015167ffffffffffffffff811115610279576102786100d9565b5b610285858286016101ec565b9150509250929050565b5f81519050919050565b7f4e487b71000000000000000000000000000000000000000000000000000000005f52602260045260245ffd5b5f60028204905060018216806102dd57607f821691505b6020821081036102f0576102ef610299565b5b50919050565b5f819050815f5260205f209050919050565b5f6020601f8301049050919050565b5f82821b905092915050565b5f600883026103527fffffffffffffffffffffffffffffffffffffffffffffffffffffffffffffffff82610317565b61035c8683610317565b95508019841693508086168417925050509392505050565b5f819050919050565b5f819050919050565b5f6103a061039b61039684610374565b61037d565b610374565b9050919050565b5f819050919050565b6103b983610386565b6103cd6103c5826103a7565b848454610323565b825550505050565b5f5f905090565b6103e46103d5565b6103ef8184846103b0565b505050565b5b81811015610412576104075f826103dc565b6001810190506103f5565b5050565b601f82111561045757610428816102f6565b61043184610308565b81016020851015610440578190505b61045461044c85610308565b8301826103f4565b50505b505050565b5f82821c905092915050565b5f6104775f198460080261045c565b1980831691505092915050565b5f61048f8383610468565b9150826002028217905092915050565b6104a88261028f565b67ffffffffffffffff8111156104c1576104c06100f5565b5b6104cb82546102c6565b6104d6828285610416565b5f60209050601f831160018114610507575f84156104f5578287015190505b6104ff8582610484565b865550610566565b601f198416610515866102f6565b5f5b8281101561053c57848901518255600182019150602085019450602081019050610517565b868310156105595784890151610555601f891682610468565b8355505b6001600288020188555050505b505050505050565b7f4e487b71000000000000000000000000000000000000000000000000000000005f52602160045260245ffd5b611826806105a85f395ff3fe608060405234801561000f575f5ffd5b50600436106100fe575f3560e01c8063af15408711610095578063d9e95a9811610064578063d9e95a9814610289578063de975d18146102a5578063f1cea4c7146102c3578063f6fd7fde146102e1576100fe565b8063af15408714610200578063b922394614610231578063baa40e5c1461023b578063c19d93fb1461026b576100fe565b80635fa520bb116100d15780635fa520bb1461018a5780636332abc9146101a6578063753ec103146101c457806390949747146101e2576100fe565b8063240815b7146101025780633c5940591461012057806346f7374d146101505780634c0a6af014610180575b5f5ffd5b61010a610311565b6040516101179190610e7c565b60405180910390f35b61013a60048036038101906101359190610ed0565b610317565b6040516101479190610f6b565b60405180910390f35b61016a600480360381019061016591906110b7565b6103b2565b6040516101779190611118565b60405180910390f35b61018861060f565b005b6101a4600480360381019061019f91906110b7565b6106fe565b005b6101ae610807565b6040516101bb9190610e7c565b60405180910390f35b6101cc61080c565b6040516101d99190610f6b565b60405180910390f35b6101ea610898565b6040516101f79190611170565b60405180910390f35b61021a600480360381019061021591906111b3565b6108bd565b6040516102289291906111de565b60405180910390f35b61023961096f565b005b610255600480360381019061025091906110b7565b610aae565b6040516102629190610e7c565b60405180910390f35b610273610b5e565b604051610280919061127f565b60405180910390f35b6102a3600480360381019061029e9190611298565b610b70565b005b6102ad610ced565b6040516102ba9190610f6b565b60405180910390f35b6102cb610d79565b6040516102d89190610e7c565b60405180910390f35b6102fb60048036038101906102f69190610ed0565b610d7f565b6040516103089190610f6b565b60405180910390f35b60025481565b6009602052805f5260405f205f9150905080546103339061131f565b80601f016020809104026020016040519081016040528092919081815260200182805461035f9061131f565b80156103aa5780601f10610381576101008083540402835291602001916103aa565b820191905f5260205f20905b81548152906001019060200180831161038d57829003601f168201915b505050505081565b5f60018060028111156103c8576103c761120c565b5b600a5f9054906101000a900460ff1660028111156103e9576103e861120c565b5b146103f2575f5ffd5b5f5f90505f60085f3373ffffffffffffffffffffffffffffffffffffffff1673ffffffffffffffffffffffffffffffffffffffff1681526020019081526020015f205f0180546104419061131f565b90501415801561049b575060085f3373ffffffffffffffffffffffffffffffffffffffff1673ffffffffffffffffffffffffffffffffffffffff1681526020019081526020015f206001015f9054906101000a900460ff16155b156105ce57600160085f3373ffffffffffffffffffffffffffffffffffffffff1673ffffffffffffffffffffffffffffffffffffffff1681526020019081526020015f206001015f6101000a81548160ff021916908315150217905550610500610e1a565b33815f019073ffffffffffffffffffffffffffffffffffffffff16908173ffffffffffffffffffffffffffffffffffffffff16815250508481602001819052508060075f60015481526020019081526020015f205f820151815f015f6101000a81548173ffffffffffffffffffffffffffffffffffffffff021916908373ffffffffffffffffffffffffffffffffffffffff16021790555060208201518160010190816105ad91906114ef565b5090505060015f8154809291906105c3906115eb565b919050555060019150505b7f55c65cf9526efdf6c2252fe9757889dbd93e10172cad0f2edb1df619c88dbf7d336040516105fd9190611170565b60405180910390a18092505050919050565b5f8060028111156106235761062261120c565b5b600a5f9054906101000a900460ff1660028111156106445761064361120c565b5b1461064d575f5ffd5b60035f9054906101000a900473ffffffffffffffffffffffffffffffffffffffff1673ffffffffffffffffffffffffffffffffffffffff163373ffffffffffffffffffffffffffffffffffffffff16146106a5575f5ffd5b6001600a5f6101000a81548160ff021916908360028111156106ca576106c961120c565b5b02179055507fd0dc01800a369fef30d3fced5275b8b916549867622e79efca5245c479fda4ea60405160405180910390a150565b5f8060028111156107125761071161120c565b5b600a5f9054906101000a900460ff1660028111156107335761073261120c565b5b1461073c575f5ffd5b60035f9054906101000a900473ffffffffffffffffffffffffffffffffffffffff1673ffffffffffffffffffffffffffffffffffffffff163373ffffffffffffffffffffffffffffffffffffffff1614610794575f5ffd5b8160065f60025481526020019081526020015f2090816107b491906114ef565b5060025f8154809291906107c7906115eb565b91905055507fba6b30eb3b7d3bc2fb7b79cfbce81c0bac85268f4fa985a5c5aa6f141fbf1465826040516107fb9190610f6b565b60405180910390a15050565b5f5481565b600580546108199061131f565b80601f01602080910402602001604051908101604052809291908181526020018280546108459061131f565b80156108905780601f1061086757610100808354040283529160200191610890565b820191905f5260205f20905b81548152906001019060200180831161087357829003601f168201915b505050505081565b60035f9054906101000a900473ffffffffffffffffffffffffffffffffffffffff1681565b6008602052805f5260405f205f91509050805f0180546108dc9061131f565b80601f01602080910402602001604051908101604052809291908181526020018280546109089061131f565b80156109535780601f1061092a57610100808354040283529160200191610953565b820191905f5260205f20905b81548152906001019060200180831161093657829003601f168201915b505050505090806001015f9054906101000a900460ff16905082565b60018060028111156109845761098361120c565b5b600a5f9054906101000a900460ff1660028111156109a5576109a461120c565b5b146109ae575f5ffd5b60035f9054906101000a900473ffffffffffffffffffffffffffffffffffffffff1673ffffffffffffffffffffffffffffffffffffffff163373ffffffffffffffffffffffffffffffffffffffff1614610a06575f5ffd5b6002600a5f6101000a81548160ff02191690836002811115610a2b57610a2a61120c565b5b02179055505f5f90505b600154811015610a7e5760075f8281526020019081526020015f2060010160095f8381526020019081526020015f209081610a709190611659565b508080600101915050610a35565b507f0deeca6c5a4a24936ed5053feb119562545a36119b158ecd0bb902a689be2d6660405160405180910390a150565b5f6002806002811115610ac457610ac361120c565b5b600a5f9054906101000a900460ff166002811115610ae557610ae461120c565b5b14610aee575f5ffd5b5f5f90505f5f90505b600154811015610b5357848051906020012060075f8381526020019081526020015f20600101604051610b2a91906117da565b604051809103902003610b46578180610b42906115eb565b9250505b8080600101915050610af7565b508092505050919050565b600a5f9054906101000a900460ff1681565b5f806002811115610b8457610b8361120c565b5b600a5f9054906101000a900460ff166002811115610ba557610ba461120c565b5b14610bae575f5ffd5b60035f9054906101000a900473ffffffffffffffffffffffffffffffffffffffff1673ffffffffffffffffffffffffffffffffffffffff163373ffffffffffffffffffffffffffffffffffffffff1614610c06575f5ffd5b610c0e610e49565b82815f01819052505f8160200190151590811515815250508060085f8673ffffffffffffffffffffffffffffffffffffffff1673ffffffffffffffffffffffffffffffffffffffff1681526020019081526020015f205f820151815f019081610c7791906114ef565b506020820151816001015f6101000a81548160ff0219169083151502179055509050505f5f815480929190610cab906115eb565b91905055507fb9e5f9042e6c6eb94817f660cfa81afea9585e59d72bfc3348a2305cbd33e13384604051610cdf9190611170565b60405180910390a150505050565b60048054610cfa9061131f565b80601f0160208091040260200160405190810160405280929190818152602001828054610d269061131f565b8015610d715780601f10610d4857610100808354040283529160200191610d71565b820191905f5260205f20905b815481529060010190602001808311610d5457829003601f168201915b505050505081565b60015481565b6006602052805f5260405f205f915090508054610d9b9061131f565b80601f0160208091040260200160405190810160405280929190818152602001828054610dc79061131f565b8015610e125780601f10610de957610100808354040283529160200191610e12565b820191905f5260205f20905b815481529060010190602001808311610df557829003601f168201915b505050505081565b60405180604001604052805f73ffffffffffffffffffffffffffffffffffffffff168152602001606081525090565b6040518060400160405280606081526020015f151581525090565b5f819050919050565b610e7681610e64565b82525050565b5f602082019050610e8f5f830184610e6d565b92915050565b5f604051905090565b5f5ffd5b5f5ffd5b610eaf81610e64565b8114610eb9575f5ffd5b50565b5f81359050610eca81610ea6565b92915050565b5f60208284031215610ee557610ee4610e9e565b5b5f610ef284828501610ebc565b91505092915050565b5f81519050919050565b5f82825260208201905092915050565b8281835e5f83830152505050565b5f601f19601f8301169050919050565b5f610f3d82610efb565b610f478185610f05565b9350610f57818560208601610f15565b610f6081610f23565b840191505092915050565b5f6020820190508181035f830152610f838184610f33565b905092915050565b5f5ffd5b5f5ffd5b7f4e487b71000000000000000000000000000000000000000000000000000000005f52604160045260245ffd5b610fc982610f23565b810181811067ffffffffffffffff82111715610fe857610fe7610f93565b5b80604052505050565b5f610ffa610e95565b90506110068282610fc0565b919050565b5f67ffffffffffffffff82111561102557611024610f93565b5b61102e82610f23565b9050602081019050919050565b828183375f83830152505050565b5f61105b6110568461100b565b610ff1565b90508281526020810184848401111561107757611076610f8f565b5b61108284828561103b565b509392505050565b5f82601f83011261109e5761109d610f8b565b5b81356110ae848260208601611049565b91505092915050565b5f602082840312156110cc576110cb610e9e565b5b5f82013567ffffffffffffffff8111156110e9576110e8610ea2565b5b6110f58482850161108a565b91505092915050565b5f8115159050919050565b611112816110fe565b82525050565b5f60208201905061112b5f830184611109565b92915050565b5f73ffffffffffffffffffffffffffffffffffffffff82169050919050565b5f61115a82611131565b9050919050565b61116a81611150565b82525050565b5f6020820190506111835f830184611161565b92915050565b61119281611150565b811461119c575f5ffd5b50565b5f813590506111ad81611189565b92915050565b5f602082840312156111c8576111c7610e9e565b5b5f6111d58482850161119f565b91505092915050565b5f6040820190508181035f8301526111f68185610f33565b90506112056020830184611109565b9392505050565b7f4e487b71000000000000000000000000000000000000000000000000000000005f52602160045260245ffd5b6003811061124a5761124961120c565b5b50565b5f81905061125a82611239565b919050565b5f6112698261124d565b9050919050565b6112798161125f565b82525050565b5f6020820190506112925f830184611270565b92915050565b5f5f604083850312156112ae576112ad610e9e565b5b5f6112bb8582860161119f565b925050602083013567ffffffffffffffff8111156112dc576112db610ea2565b5b6112e88582860161108a565b9150509250929050565b7f4e487b71000000000000000000000000000000000000000000000000000000005f52602260045260245ffd5b5f600282049050600182168061133657607f821691505b602082108103611349576113486112f2565b5b50919050565b5f819050815f5260205f209050919050565b5f6020601f8301049050919050565b5f82821b905092915050565b5f600883026113ab7fffffffffffffffffffffffffffffffffffffffffffffffffffffffffffffffff82611370565b6113b58683611370565b95508019841693508086168417925050509392505050565b5f819050919050565b5f6113f06113eb6113e684610e64565b6113cd565b610e64565b9050919050565b5f819050919050565b611409836113d6565b61141d611415826113f7565b84845461137c565b825550505050565b5f5f905090565b611434611425565b61143f818484611400565b505050565b5b81811015611462576114575f8261142c565b600181019050611445565b5050565b601f8211156114a7576114788161134f565b61148184611361565b81016020851015611490578190505b6114a461149c85611361565b830182611444565b50505b505050565b5f82821c905092915050565b5f6114c75f19846008026114ac565b1980831691505092915050565b5f6114df83836114b8565b9150826002028217905092915050565b6114f882610efb565b67ffffffffffffffff81111561151157611510610f93565b5b61151b825461131f565b611526828285611466565b5f60209050601f831160018114611557575f8415611545578287015190505b61154f85826114d4565b8655506115b6565b601f1984166115658661134f565b5f5b8281101561158c57848901518255600182019150602085019450602081019050611567565b868310156115a957848901516115a5601f8916826114b8565b8355505b6001600288020188555050505b505050505050565b7f4e487b71000000000000000000000000000000000000000000000000000000005f52601160045260245ffd5b5f6115f582610e64565b91507fffffffffffffffffffffffffffffffffffffffffffffffffffffffffffffffff8203611627576116266115be565b5b600182019050919050565b5f815490506116408161131f565b9050919050565b5f819050815f5260205f209050919050565b81810361166757505061173c565b61167082611632565b67ffffffffffffffff81111561168957611688610f93565b5b611693825461131f565b61169e828285611466565b5f601f8311600181146116cb575f84156116b9578287015490505b6116c385826114d4565b865550611735565b601f1984166116d987611647565b96506116e48661134f565b5f5b8281101561170b578489015482556001820191506001850194506020810190506116e6565b868310156117285784890154611724601f8916826114b8565b8355505b6001600288020188555050505b5050505050505b565b5f81905092915050565b5f819050815f5260205f209050919050565b5f81546117668161131f565b611770818661173e565b9450600182165f811461178a576001811461179f576117d1565b60ff19831686528115158202860193506117d1565b6117a885611748565b5f5b838110156117c9578154818901526001820191506020810190506117aa565b838801955050505b50505092915050565b5f6117e5828461175a565b91508190509291505056fea2646970667358221220d39b1048ac4d97d44b02ee06c2767df6862cdd5ffb6306a0015ef1e86ded676964736f6c634300081e0033",
  "immutableReferences": {},
  "source": "// SPDX-License-Identifier: Unlicensed\r\n\r\npragma solidity >=0.7.0 <0.9.0;\r\n\r\ncontract Voting {\r\n    struct Vote {\r\n        address voterAddress;\r\n        string choice;\r\n    }\r\n\r\n    struct Voter {\r\n        string voterName;\r\n        bool voted;\r\n    }\r\n\r\n    uint256 public totalVoter = 0;\r\n    uint256 public totalVote = 0;\r\n    uint256 public choiceCount = 0;\r\n\r\n    address public ballotOfficialAddress;\r\n    string public ballotOfficialName;\r\n    string public proposal;\r\n\r\n    mapping(uint256 => string) public choices;\r\n    mapping(uint256 => Vote) private votes;\r\n    mapping(address => Voter) public voterRegister;\r\n    mapping(uint256 => string) public result;\r\n\r\n    enum State {\r\n        Created,\r\n        Voting,\r\n        Ended\r\n    }\r\n    State public state;\r\n\r\n    constructor(string memory _ballotOfficialName, string memory _proposal) {\r\n        ballotOfficialAddress = msg.sender;\r\n        ballotOfficialName = _ballotOfficialName;\r\n        proposal = _proposal;\r\n\r\n        state = State.Created;\r\n    }\r\n\r\n    modifier condition(bool _condition) {\r\n        require(_condition);\r\n        _;\r\n    }\r\n\r\n    modifier onlyOfficial() {\r\n        require(msg.sender == ballotOfficialAddress);\r\n        _;\r\n    }\r\n\r\n    modifier inState(State _state) {\r\n        require(state == _state);\r\n        _;\r\n    }\r\n\r\n    event voterAdded(address voter);\r\n    event choiceAdded(string choice);\r\n    event voteStarted();\r\n    event voteEnded();\r\n    event voteDone(address voter);\r\n\r\n    // Add Choice\r\n    function addChoice(string memory _choice)\r\n        public\r\n        inState(State.Created)\r\n        onlyOfficial\r\n    {\r\n        choices[choiceCount] = _choice;\r\n        choiceCount++;\r\n        emit choiceAdded(_choice);\r\n    }\r\n\r\n    // Add Voter\r\n    function addVoter(address _voterAddress, string memory _voterName)\r\n        public\r\n        inState(State.Created)\r\n        onlyOfficial\r\n    {\r\n        Voter memory v;\r\n        v.voterName = _voterName;\r\n        v.voted = false;\r\n        voterRegister[_voterAddress] = v;\r\n        totalVoter++;\r\n        emit voterAdded(_voterAddress);\r\n    }\r\n\r\n    // Declare voting starts now\r\n    function startVote() public inState(State.Created) onlyOfficial {\r\n        state = State.Voting;\r\n        emit voteStarted();\r\n    }\r\n\r\n    // Voters vote by indicating their choice\r\n    function doVote(string memory _choice)\r\n        public\r\n        inState(State.Voting)\r\n        returns (bool voted)\r\n    {\r\n        bool found = false;\r\n\r\n        if (\r\n            bytes(voterRegister[msg.sender].voterName).length != 0 &&\r\n            !voterRegister[msg.sender].voted\r\n        ) {\r\n            voterRegister[msg.sender].voted = true;\r\n            Vote memory v;\r\n            v.voterAddress = msg.sender;\r\n            v.choice = _choice;\r\n\r\n            votes[totalVote] = v;\r\n            totalVote++;\r\n\r\n            found = true;\r\n        }\r\n        emit voteDone(msg.sender);\r\n        return found;\r\n    }\r\n\r\n    // End Votes\r\n    function endVote() public inState(State.Voting) onlyOfficial {\r\n        state = State.Ended;\r\n\r\n        for (uint256 i = 0; i < totalVote; i++) {\r\n            result[i] = votes[i].choice;\r\n        }\r\n\r\n        emit voteEnded();\r\n    }\r\n\r\n    // Get Votes\r\n    function getVote(string memory _choice)\r\n        public\r\n        view\r\n        inState(State.Ended)\r\n        returns (uint256 voteCount)\r\n    {\r\n        uint256 count = 0;\r\n\r\n        for (uint256 i = 0; i < totalVote; i++) {\r\n            if (\r\n                keccak256(bytes(votes[i].choice)) == keccak256(bytes(_choice))\r\n            ) {\r\n                count++;\r\n            }\r\n        }\r\n\r\n        return count;\r\n    }\r\n}\r\n",
  "sourcePath": "C:\\Users\\rajth\\Dev\\Voting-System\\src\\contracts\\Voting.sol",
  "compiler": {
    "name": "solc",
    "version": "0.8.30+commit.73712a01.Emscripten.clang"
  },
  "schemaVersion": "3.4.16",
  "updatedAt": "2025-05-10T12:09:07.129Z",
  "devdoc": {
    "kind": "dev",
    "methods": {},
    "version": 1
  },
  "userdoc": {
    "kind": "user",
    "methods": {},
    "version": 1
  }
}